{
  "_format": "hh-sol-artifact-1",
  "contractName": "PropertyRegistry",
  "sourceName": "contracts/PropertyRegistry.sol",
  "abi": [
    {
      "inputs": [],
      "stateMutability": "nonpayable",
      "type": "constructor"
    },
    {
      "inputs": [
        {
          "internalType": "address",
          "name": "sender",
          "type": "address"
        },
        {
          "internalType": "uint256",
          "name": "tokenId",
          "type": "uint256"
        },
        {
          "internalType": "address",
          "name": "owner",
          "type": "address"
        }
      ],
      "name": "ERC721IncorrectOwner",
      "type": "error"
    },
    {
      "inputs": [
        {
          "internalType": "address",
          "name": "operator",
          "type": "address"
        },
        {
          "internalType": "uint256",
          "name": "tokenId",
          "type": "uint256"
        }
      ],
      "name": "ERC721InsufficientApproval",
      "type": "error"
    },
    {
      "inputs": [
        {
          "internalType": "address",
          "name": "approver",
          "type": "address"
        }
      ],
      "name": "ERC721InvalidApprover",
      "type": "error"
    },
    {
      "inputs": [
        {
          "internalType": "address",
          "name": "operator",
          "type": "address"
        }
      ],
      "name": "ERC721InvalidOperator",
      "type": "error"
    },
    {
      "inputs": [
        {
          "internalType": "address",
          "name": "owner",
          "type": "address"
        }
      ],
      "name": "ERC721InvalidOwner",
      "type": "error"
    },
    {
      "inputs": [
        {
          "internalType": "address",
          "name": "receiver",
          "type": "address"
        }
      ],
      "name": "ERC721InvalidReceiver",
      "type": "error"
    },
    {
      "inputs": [
        {
          "internalType": "address",
          "name": "sender",
          "type": "address"
        }
      ],
      "name": "ERC721InvalidSender",
      "type": "error"
    },
    {
      "inputs": [
        {
          "internalType": "uint256",
          "name": "tokenId",
          "type": "uint256"
        }
      ],
      "name": "ERC721NonexistentToken",
      "type": "error"
    },
    {
      "inputs": [
        {
          "internalType": "address",
          "name": "owner",
          "type": "address"
        }
      ],
      "name": "OwnableInvalidOwner",
      "type": "error"
    },
    {
      "inputs": [
        {
          "internalType": "address",
          "name": "account",
          "type": "address"
        }
      ],
      "name": "OwnableUnauthorizedAccount",
      "type": "error"
    },
    {
      "anonymous": false,
      "inputs": [
        {
          "indexed": true,
          "internalType": "address",
          "name": "owner",
          "type": "address"
        },
        {
          "indexed": true,
          "internalType": "address",
          "name": "approved",
          "type": "address"
        },
        {
          "indexed": true,
          "internalType": "uint256",
          "name": "tokenId",
          "type": "uint256"
        }
      ],
      "name": "Approval",
      "type": "event"
    },
    {
      "anonymous": false,
      "inputs": [
        {
          "indexed": true,
          "internalType": "address",
          "name": "owner",
          "type": "address"
        },
        {
          "indexed": true,
          "internalType": "address",
          "name": "operator",
          "type": "address"
        },
        {
          "indexed": false,
          "internalType": "bool",
          "name": "approved",
          "type": "bool"
        }
      ],
      "name": "ApprovalForAll",
      "type": "event"
    },
    {
      "anonymous": false,
      "inputs": [
        {
          "indexed": true,
          "internalType": "address",
          "name": "previousOwner",
          "type": "address"
        },
        {
          "indexed": true,
          "internalType": "address",
          "name": "newOwner",
          "type": "address"
        }
      ],
      "name": "OwnershipTransferred",
      "type": "event"
    },
    {
      "anonymous": false,
      "inputs": [
        {
          "indexed": true,
          "internalType": "uint256",
          "name": "propertyId",
          "type": "uint256"
        },
        {
          "indexed": false,
          "internalType": "address",
          "name": "fractionalContract",
          "type": "address"
        }
      ],
      "name": "PropertyFractionalized",
      "type": "event"
    },
    {
      "anonymous": false,
      "inputs": [
        {
          "indexed": true,
          "internalType": "uint256",
          "name": "propertyId",
          "type": "uint256"
        },
        {
          "indexed": false,
          "internalType": "string",
          "name": "name",
          "type": "string"
        },
        {
          "indexed": true,
          "internalType": "address",
          "name": "owner",
          "type": "address"
        }
      ],
      "name": "PropertyRegistered",
      "type": "event"
    },
    {
      "anonymous": false,
      "inputs": [
        {
          "indexed": true,
          "internalType": "uint256",
          "name": "requestId",
          "type": "uint256"
        },
        {
          "indexed": true,
          "internalType": "uint256",
          "name": "propertyId",
          "type": "uint256"
        }
      ],
      "name": "PropertyRequestApproved",
      "type": "event"
    },
    {
      "anonymous": false,
      "inputs": [
        {
          "indexed": true,
          "internalType": "uint256",
          "name": "requestId",
          "type": "uint256"
        },
        {
          "indexed": false,
          "internalType": "string",
          "name": "name",
          "type": "string"
        },
        {
          "indexed": true,
          "internalType": "address",
          "name": "requester",
          "type": "address"
        }
      ],
      "name": "PropertyRequestCreated",
      "type": "event"
    },
    {
      "anonymous": false,
      "inputs": [
        {
          "indexed": true,
          "internalType": "uint256",
          "name": "requestId",
          "type": "uint256"
        }
      ],
      "name": "PropertyRequestRejected",
      "type": "event"
    },
    {
      "anonymous": false,
      "inputs": [
        {
          "indexed": true,
          "internalType": "address",
          "name": "from",
          "type": "address"
        },
        {
          "indexed": true,
          "internalType": "address",
          "name": "to",
          "type": "address"
        },
        {
          "indexed": true,
          "internalType": "uint256",
          "name": "tokenId",
          "type": "uint256"
        }
      ],
      "name": "Transfer",
      "type": "event"
    },
    {
      "inputs": [
        {
          "internalType": "address",
          "name": "to",
          "type": "address"
        },
        {
          "internalType": "uint256",
          "name": "tokenId",
          "type": "uint256"
        }
      ],
      "name": "approve",
      "outputs": [],
      "stateMutability": "nonpayable",
      "type": "function"
    },
    {
      "inputs": [
        {
          "internalType": "uint256",
          "name": "_requestId",
          "type": "uint256"
        }
      ],
      "name": "approveRequest",
      "outputs": [],
      "stateMutability": "nonpayable",
      "type": "function"
    },
    {
      "inputs": [
        {
          "internalType": "address",
          "name": "owner",
          "type": "address"
        }
      ],
      "name": "balanceOf",
      "outputs": [
        {
          "internalType": "uint256",
          "name": "",
          "type": "uint256"
        }
      ],
      "stateMutability": "view",
      "type": "function"
    },
    {
      "inputs": [
        {
          "internalType": "string",
          "name": "_name",
          "type": "string"
        },
        {
          "internalType": "string",
          "name": "_partnershipAgreementUrl",
          "type": "string"
        },
        {
          "internalType": "string",
          "name": "_maintenanceAgreementUrl",
          "type": "string"
        },
        {
          "internalType": "string",
          "name": "_rentAgreementUrl",
          "type": "string"
        },
        {
          "internalType": "string",
          "name": "_imageUrl",
          "type": "string"
        },
        {
          "internalType": "address[]",
          "name": "_ownerAddresses",
          "type": "address[]"
        },
        {
          "internalType": "uint256[]",
          "name": "_percentages",
          "type": "uint256[]"
        }
      ],
      "name": "createPropertyRequest",
      "outputs": [],
      "stateMutability": "nonpayable",
      "type": "function"
    },
    {
      "inputs": [],
      "name": "fractionalizer",
      "outputs": [
        {
          "internalType": "contract Fractionalizer",
          "name": "",
          "type": "address"
        }
      ],
      "stateMutability": "view",
      "type": "function"
    },
    {
      "inputs": [
        {
          "internalType": "uint256",
          "name": "tokenId",
          "type": "uint256"
        }
      ],
      "name": "getApproved",
      "outputs": [
        {
          "internalType": "address",
          "name": "",
          "type": "address"
        }
      ],
      "stateMutability": "view",
      "type": "function"
    },
    {
      "inputs": [
        {
          "internalType": "uint256",
          "name": "_id",
          "type": "uint256"
        }
      ],
      "name": "getProperty",
      "outputs": [
        {
          "components": [
            {
              "internalType": "uint256",
              "name": "id",
              "type": "uint256"
            },
            {
              "internalType": "string",
              "name": "name",
              "type": "string"
            },
            {
              "internalType": "string",
              "name": "partnershipAgreementUrl",
              "type": "string"
            },
            {
              "internalType": "string",
              "name": "maintenanceAgreementUrl",
              "type": "string"
            },
            {
              "internalType": "string",
              "name": "rentAgreementUrl",
              "type": "string"
            },
            {
              "internalType": "string",
              "name": "imageUrl",
              "type": "string"
            },
            {
              "internalType": "bool",
              "name": "isFractionalized",
              "type": "bool"
            }
          ],
          "internalType": "struct PropertyRegistry.Property",
          "name": "",
          "type": "tuple"
        }
      ],
      "stateMutability": "view",
      "type": "function"
    },
    {
      "inputs": [
        {
          "internalType": "uint256",
          "name": "_propertyId",
          "type": "uint256"
        }
      ],
      "name": "getPropertyOwners",
      "outputs": [
        {
          "internalType": "address[]",
          "name": "ownerAddresses",
          "type": "address[]"
        },
        {
          "internalType": "uint256[]",
          "name": "percentages",
          "type": "uint256[]"
        }
      ],
      "stateMutability": "view",
      "type": "function"
    },
    {
      "inputs": [
        {
          "internalType": "uint256",
          "name": "_requestId",
          "type": "uint256"
        }
      ],
      "name": "getRequest",
      "outputs": [
        {
          "internalType": "uint256",
          "name": "id",
          "type": "uint256"
        },
        {
          "internalType": "string",
          "name": "name",
          "type": "string"
        },
        {
          "internalType": "string",
          "name": "partnershipAgreementUrl",
          "type": "string"
        },
        {
          "internalType": "string",
          "name": "maintenanceAgreementUrl",
          "type": "string"
        },
        {
          "internalType": "string",
          "name": "rentAgreementUrl",
          "type": "string"
        },
        {
          "internalType": "string",
          "name": "imageUrl",
          "type": "string"
        },
        {
          "internalType": "address",
          "name": "requester",
          "type": "address"
        },
        {
          "internalType": "uint8",
          "name": "status",
          "type": "uint8"
        },
        {
          "internalType": "uint256",
          "name": "propertyId",
          "type": "uint256"
        }
      ],
      "stateMutability": "view",
      "type": "function"
    },
    {
      "inputs": [
        {
          "internalType": "uint256",
          "name": "_requestId",
          "type": "uint256"
        }
      ],
      "name": "getRequestOwners",
      "outputs": [
        {
          "internalType": "address[]",
          "name": "ownerAddresses",
          "type": "address[]"
        },
        {
          "internalType": "uint256[]",
          "name": "percentages",
          "type": "uint256[]"
        }
      ],
      "stateMutability": "view",
      "type": "function"
    },
    {
      "inputs": [
        {
          "internalType": "address",
          "name": "owner",
          "type": "address"
        },
        {
          "internalType": "address",
          "name": "operator",
          "type": "address"
        }
      ],
      "name": "isApprovedForAll",
      "outputs": [
        {
          "internalType": "bool",
          "name": "",
          "type": "bool"
        }
      ],
      "stateMutability": "view",
      "type": "function"
    },
    {
      "inputs": [
        {
          "internalType": "uint256",
          "name": "_propertyId",
          "type": "uint256"
        },
        {
          "internalType": "address",
          "name": "_fractionalContract",
          "type": "address"
        }
      ],
      "name": "markFractionalized",
      "outputs": [],
      "stateMutability": "nonpayable",
      "type": "function"
    },
    {
      "inputs": [],
      "name": "name",
      "outputs": [
        {
          "internalType": "string",
          "name": "",
          "type": "string"
        }
      ],
      "stateMutability": "view",
      "type": "function"
    },
    {
      "inputs": [],
      "name": "owner",
      "outputs": [
        {
          "internalType": "address",
          "name": "",
          "type": "address"
        }
      ],
      "stateMutability": "view",
      "type": "function"
    },
    {
      "inputs": [
        {
          "internalType": "uint256",
          "name": "tokenId",
          "type": "uint256"
        }
      ],
      "name": "ownerOf",
      "outputs": [
        {
          "internalType": "address",
          "name": "",
          "type": "address"
        }
      ],
      "stateMutability": "view",
      "type": "function"
    },
    {
      "inputs": [],
      "name": "propertyCount",
      "outputs": [
        {
          "internalType": "uint256",
          "name": "",
          "type": "uint256"
        }
      ],
      "stateMutability": "view",
      "type": "function"
    },
    {
      "inputs": [
        {
          "internalType": "string",
          "name": "_name",
          "type": "string"
        },
        {
          "internalType": "address",
          "name": "_owner",
          "type": "address"
        },
        {
          "internalType": "string",
          "name": "_partnershipAgreementUrl",
          "type": "string"
        },
        {
          "internalType": "string",
          "name": "_maintenanceAgreementUrl",
          "type": "string"
        },
        {
          "internalType": "string",
          "name": "_rentAgreementUrl",
          "type": "string"
        },
        {
          "internalType": "string",
          "name": "_imageUrl",
          "type": "string"
        }
      ],
      "name": "registerProperty",
      "outputs": [],
      "stateMutability": "nonpayable",
      "type": "function"
    },
    {
      "inputs": [
        {
          "internalType": "uint256",
          "name": "_requestId",
          "type": "uint256"
        }
      ],
      "name": "rejectRequest",
      "outputs": [],
      "stateMutability": "nonpayable",
      "type": "function"
    },
    {
      "inputs": [],
      "name": "renounceOwnership",
      "outputs": [],
      "stateMutability": "nonpayable",
      "type": "function"
    },
    {
      "inputs": [],
      "name": "requestCount",
      "outputs": [
        {
          "internalType": "uint256",
          "name": "",
          "type": "uint256"
        }
      ],
      "stateMutability": "view",
      "type": "function"
    },
    {
      "inputs": [
        {
          "internalType": "address",
          "name": "from",
          "type": "address"
        },
        {
          "internalType": "address",
          "name": "to",
          "type": "address"
        },
        {
          "internalType": "uint256",
          "name": "tokenId",
          "type": "uint256"
        }
      ],
      "name": "safeTransferFrom",
      "outputs": [],
      "stateMutability": "nonpayable",
      "type": "function"
    },
    {
      "inputs": [
        {
          "internalType": "address",
          "name": "from",
          "type": "address"
        },
        {
          "internalType": "address",
          "name": "to",
          "type": "address"
        },
        {
          "internalType": "uint256",
          "name": "tokenId",
          "type": "uint256"
        },
        {
          "internalType": "bytes",
          "name": "data",
          "type": "bytes"
        }
      ],
      "name": "safeTransferFrom",
      "outputs": [],
      "stateMutability": "nonpayable",
      "type": "function"
    },
    {
      "inputs": [
        {
          "internalType": "address",
          "name": "operator",
          "type": "address"
        },
        {
          "internalType": "bool",
          "name": "approved",
          "type": "bool"
        }
      ],
      "name": "setApprovalForAll",
      "outputs": [],
      "stateMutability": "nonpayable",
      "type": "function"
    },
    {
      "inputs": [
        {
          "internalType": "address",
          "name": "_fractionalizerAddress",
          "type": "address"
        }
      ],
      "name": "setFractionalizerAddress",
      "outputs": [],
      "stateMutability": "nonpayable",
      "type": "function"
    },
    {
      "inputs": [
        {
          "internalType": "bytes4",
          "name": "interfaceId",
          "type": "bytes4"
        }
      ],
      "name": "supportsInterface",
      "outputs": [
        {
          "internalType": "bool",
          "name": "",
          "type": "bool"
        }
      ],
      "stateMutability": "view",
      "type": "function"
    },
    {
      "inputs": [],
      "name": "symbol",
      "outputs": [
        {
          "internalType": "string",
          "name": "",
          "type": "string"
        }
      ],
      "stateMutability": "view",
      "type": "function"
    },
    {
      "inputs": [
        {
          "internalType": "uint256",
          "name": "tokenId",
          "type": "uint256"
        }
      ],
      "name": "tokenURI",
      "outputs": [
        {
          "internalType": "string",
          "name": "",
          "type": "string"
        }
      ],
      "stateMutability": "view",
      "type": "function"
    },
    {
      "inputs": [
        {
          "internalType": "address",
          "name": "from",
          "type": "address"
        },
        {
          "internalType": "address",
          "name": "to",
          "type": "address"
        },
        {
          "internalType": "uint256",
          "name": "tokenId",
          "type": "uint256"
        }
      ],
      "name": "transferFrom",
      "outputs": [],
      "stateMutability": "nonpayable",
      "type": "function"
    },
    {
      "inputs": [
        {
          "internalType": "address",
          "name": "newOwner",
          "type": "address"
        }
      ],
      "name": "transferOwnership",
      "outputs": [],
      "stateMutability": "nonpayable",
      "type": "function"
    }
  ],
  "bytecode": "0x608060405234801561001057600080fd5b50336040518060400160405280600d81526020016c1499585b115cdd185d19539195609a1b815250604051806040016040528060048152602001631491539560e21b815250816000908161006491906101a2565b50600161007182826101a2565b5050506001600160a01b0381166100a257604051631e4fbdf760e01b81526000600482015260240160405180910390fd5b6100ab816100b1565b50610260565b600680546001600160a01b038381166001600160a01b0319831681179093556040519116919082907f8be0079c531659141344cd1fd0a4f28419497f9722a3daafe3b4186f6b6457e090600090a35050565b634e487b7160e01b600052604160045260246000fd5b600181811c9082168061012d57607f821691505b60208210810361014d57634e487b7160e01b600052602260045260246000fd5b50919050565b601f82111561019d57806000526020600020601f840160051c8101602085101561017a5750805b601f840160051c820191505b8181101561019a5760008155600101610186565b50505b505050565b81516001600160401b038111156101bb576101bb610103565b6101cf816101c98454610119565b84610153565b6020601f82116001811461020357600083156101eb5750848201515b600019600385901b1c1916600184901b17845561019a565b600084815260208120601f198516915b828110156102335787850151825560209485019460019092019101610213565b50848210156102515786840151600019600387901b60f8161c191681555b50505050600190811b01905550565b6132ea8061026f6000396000f3fe608060405234801561001057600080fd5b50600436106101cf5760003560e01c806376f82d0111610104578063c58343ef116100a2578063e25736b211610071578063e25736b2146103ec578063e57ea49b146103ff578063e985e9c514610412578063f2fde38b1461042557600080fd5b8063c58343ef1461038b578063c87b56dd146103b3578063d03b0e49146103c6578063d7d1bbdb146103d957600080fd5b806395d89b41116100de57806395d89b4114610355578063a22cb4651461035d578063b88d4fde14610370578063c361a3351461038357600080fd5b806376f82d011461031e5780637c71dd24146103315780638da5cb5b1461034457600080fd5b80633467832d116101715780635badbe4c1161014b5780635badbe4c146102de5780636352211e146102f057806370a0823114610303578063715018a61461031657600080fd5b80633467832d1461029757806342842e0e146102aa57806354797676146102bd57600080fd5b8063095ea7b3116101ad578063095ea7b31461023c57806323b872dd146102515780632d7788db1461026457806332665ffb1461027757600080fd5b806301ffc9a7146101d457806306fdde03146101fc578063081812fc14610211575b600080fd5b6101e76101e23660046126df565b610438565b60405190151581526020015b60405180910390f35b61020461048a565b6040516101f3919061274c565b61022461021f36600461275f565b61051c565b6040516001600160a01b0390911681526020016101f3565b61024f61024a366004612794565b610545565b005b61024f61025f3660046127be565b610554565b61024f61027236600461275f565b6105e4565b61028a61028536600461275f565b6106b7565b6040516101f391906127fb565b61024f6102a53660046128b2565b610a68565b61024f6102b83660046127be565b610b26565b6102d06102cb36600461275f565b610b46565b6040516101f39291906128de565b6008545b6040519081526020016101f3565b6102246102fe36600461275f565b610ca2565b6102e2610311366004612969565b610cad565b61024f610cf5565b6102d061032c36600461275f565b610d09565b61024f61033f366004612969565b610e92565b6006546001600160a01b0316610224565b610204610f20565b61024f61036b366004612984565b610f2f565b61024f61037e366004612a61565b610f3a565b6007546102e2565b61039e61039936600461275f565b610f52565b6040516101f399989796959493929190612adc565b6102046103c136600461275f565b6112b3565b600c54610224906001600160a01b031681565b61024f6103e736600461275f565b611328565b61024f6103fa366004612c89565b611941565b61024f61040d366004612dc5565b611d39565b6101e7610420366004612ebb565b611f04565b61024f610433366004612969565b611f32565b60006001600160e01b031982166380ac58cd60e01b148061046957506001600160e01b03198216635b5e139f60e01b145b8061048457506301ffc9a760e01b6001600160e01b03198316145b92915050565b60606000805461049990612ee5565b80601f01602080910402602001604051908101604052809291908181526020018280546104c590612ee5565b80156105125780601f106104e757610100808354040283529160200191610512565b820191906000526020600020905b8154815290600101906020018083116104f557829003601f168201915b5050505050905090565b600061052782611f70565b506000828152600460205260409020546001600160a01b0316610484565b610550828233611fa9565b5050565b6001600160a01b03821661058357604051633250574960e11b8152600060048201526024015b60405180910390fd5b6000610590838333611fb6565b9050836001600160a01b0316816001600160a01b0316146105de576040516364283d7b60e01b81526001600160a01b038086166004830152602482018490528216604482015260640161057a565b50505050565b6105ec6120af565b6000811180156105fe57506008548111155b61061a5760405162461bcd60e51b815260040161057a90612f1f565b6000818152600a60205260409020600881015460ff16156106795760405162461bcd60e51b815260206004820152601960248201527814995c5d595cdd08185b1c9958591e481c1c9bd8d95cdcd959603a1b604482015260640161057a565b60088101805460ff1916600217905560405182907f9d52f6db4ae8ca1b7f14d5c189f031a6bf3209b6666c4f6c01a67338c538181290600090a25050565b6106f96040518060e001604052806000815260200160608152602001606081526020016060815260200160608152602001606081526020016000151581525090565b600061070483610ca2565b6001600160a01b03160361074f5760405162461bcd60e51b8152602060048201526012602482015271141c9bdc195c9d1e481b9bdd08199bdd5b9960721b604482015260640161057a565b600960008381526020019081526020016000206040518060e00160405290816000820154815260200160018201805461078790612ee5565b80601f01602080910402602001604051908101604052809291908181526020018280546107b390612ee5565b80156108005780601f106107d557610100808354040283529160200191610800565b820191906000526020600020905b8154815290600101906020018083116107e357829003601f168201915b5050505050815260200160028201805461081990612ee5565b80601f016020809104026020016040519081016040528092919081815260200182805461084590612ee5565b80156108925780601f1061086757610100808354040283529160200191610892565b820191906000526020600020905b81548152906001019060200180831161087557829003601f168201915b505050505081526020016003820180546108ab90612ee5565b80601f01602080910402602001604051908101604052809291908181526020018280546108d790612ee5565b80156109245780601f106108f957610100808354040283529160200191610924565b820191906000526020600020905b81548152906001019060200180831161090757829003601f168201915b5050505050815260200160048201805461093d90612ee5565b80601f016020809104026020016040519081016040528092919081815260200182805461096990612ee5565b80156109b65780601f1061098b576101008083540402835291602001916109b6565b820191906000526020600020905b81548152906001019060200180831161099957829003601f168201915b505050505081526020016005820180546109cf90612ee5565b80601f01602080910402602001604051908101604052809291908181526020018280546109fb90612ee5565b8015610a485780601f10610a1d57610100808354040283529160200191610a48565b820191906000526020600020905b815481529060010190602001808311610a2b57829003601f168201915b50505091835250506006919091015460ff16151560209091015292915050565b610a706120af565b6000610a7b83610ca2565b6001600160a01b031603610ac75760405162461bcd60e51b8152602060048201526013602482015272125b9d985b1a59081c1c9bdc195c9d1e481251606a1b604482015260640161057a565b600082815260096020908152604091829020600601805460ff1916600117905590516001600160a01b038316815283917fc231e91a72847bed4aa7fbf4a0541bca6938e13eeaddbf3b0a68691f358f3984910160405180910390a25050565b610b4183838360405180602001604052806000815250610f3a565b505050565b6000818152600b6020526040902080546060918291806001600160401b03811115610b7357610b736129c0565b604051908082528060200260200182016040528015610b9c578160200160208202803683370190505b509350806001600160401b03811115610bb757610bb76129c0565b604051908082528060200260200182016040528015610be0578160200160208202803683370190505b50925060005b81811015610c9a57828181548110610c0057610c00612f4b565b600091825260209091206002909102015485516001600160a01b0390911690869083908110610c3157610c31612f4b565b60200260200101906001600160a01b031690816001600160a01b031681525050828181548110610c6357610c63612f4b565b906000526020600020906002020160010154848281518110610c8757610c87612f4b565b6020908102919091010152600101610be6565b505050915091565b600061048482611f70565b60006001600160a01b038216610cd9576040516322718ad960e21b81526000600482015260240161057a565b506001600160a01b031660009081526003602052604090205490565b610cfd6120af565b610d0760006120dc565b565b606080600083118015610d1e57506008548311155b610d3a5760405162461bcd60e51b815260040161057a90612f1f565b6000838152600a602052604090206007810154806001600160401b03811115610d6557610d656129c0565b604051908082528060200260200182016040528015610d8e578160200160208202803683370190505b509350806001600160401b03811115610da957610da96129c0565b604051908082528060200260200182016040528015610dd2578160200160208202803683370190505b50925060005b81811015610c9a57826007018181548110610df557610df5612f4b565b600091825260209091206002909102015485516001600160a01b0390911690869083908110610e2657610e26612f4b565b60200260200101906001600160a01b031690816001600160a01b031681525050826007018181548110610e5b57610e5b612f4b565b906000526020600020906002020160010154848281518110610e7f57610e7f612f4b565b6020908102919091010152600101610dd8565b610e9a6120af565b600c546001600160a01b031615610efe5760405162461bcd60e51b815260206004820152602260248201527f4672616374696f6e616c697a6572206164647265737320616c72656164792073604482015261195d60f21b606482015260840161057a565b600c80546001600160a01b0319166001600160a01b0392909216919091179055565b60606001805461049990612ee5565b61055033838361212e565b610f45848484610554565b6105de33858585856121cd565b600060608060608060606000806000808a118015610f7257506008548a11155b610f8e5760405162461bcd60e51b815260040161057a90612f1f565b60008a8152600a602052604090208054600682015460088301546009840154600185018054909360028701936003880193600489019360058a01936001600160a01b03169260ff1691908890610fe390612ee5565b80601f016020809104026020016040519081016040528092919081815260200182805461100f90612ee5565b801561105c5780601f106110315761010080835404028352916020019161105c565b820191906000526020600020905b81548152906001019060200180831161103f57829003601f168201915b5050505050975086805461106f90612ee5565b80601f016020809104026020016040519081016040528092919081815260200182805461109b90612ee5565b80156110e85780601f106110bd576101008083540402835291602001916110e8565b820191906000526020600020905b8154815290600101906020018083116110cb57829003601f168201915b505050505096508580546110fb90612ee5565b80601f016020809104026020016040519081016040528092919081815260200182805461112790612ee5565b80156111745780601f1061114957610100808354040283529160200191611174565b820191906000526020600020905b81548152906001019060200180831161115757829003601f168201915b5050505050955084805461118790612ee5565b80601f01602080910402602001604051908101604052809291908181526020018280546111b390612ee5565b80156112005780601f106111d557610100808354040283529160200191611200565b820191906000526020600020905b8154815290600101906020018083116111e357829003601f168201915b5050505050945083805461121390612ee5565b80601f016020809104026020016040519081016040528092919081815260200182805461123f90612ee5565b801561128c5780601f106112615761010080835404028352916020019161128c565b820191906000526020600020905b81548152906001019060200180831161126f57829003601f168201915b50505050509350995099509950995099509950995099509950509193959799909294969850565b60606112be82611f70565b5060006112d660408051602081019091526000815290565b905060008151116112f65760405180602001604052806000815250611321565b80611300846122f8565b604051602001611311929190612f61565b6040516020818303038152906040525b9392505050565b6113306120af565b60008111801561134257506008548111155b61135e5760405162461bcd60e51b815260040161057a90612f1f565b6000818152600a60205260409020600881015460ff16156113bd5760405162461bcd60e51b815260206004820152601960248201527814995c5d595cdd08185b1c9958591e481c1c9bd8d95cdcd959603a1b604482015260640161057a565b600780549060006113cd83612fa6565b9091555050600754600c546113eb906001600160a01b03168261238a565b6040518060e0016040528082815260200183600101805461140b90612ee5565b80601f016020809104026020016040519081016040528092919081815260200182805461143790612ee5565b80156114845780601f1061145957610100808354040283529160200191611484565b820191906000526020600020905b81548152906001019060200180831161146757829003601f168201915b5050505050815260200183600201805461149d90612ee5565b80601f01602080910402602001604051908101604052809291908181526020018280546114c990612ee5565b80156115165780601f106114eb57610100808354040283529160200191611516565b820191906000526020600020905b8154815290600101906020018083116114f957829003601f168201915b5050505050815260200183600301805461152f90612ee5565b80601f016020809104026020016040519081016040528092919081815260200182805461155b90612ee5565b80156115a85780601f1061157d576101008083540402835291602001916115a8565b820191906000526020600020905b81548152906001019060200180831161158b57829003601f168201915b505050505081526020018360040180546115c190612ee5565b80601f01602080910402602001604051908101604052809291908181526020018280546115ed90612ee5565b801561163a5780601f1061160f5761010080835404028352916020019161163a565b820191906000526020600020905b81548152906001019060200180831161161d57829003601f168201915b5050505050815260200183600501805461165390612ee5565b80601f016020809104026020016040519081016040528092919081815260200182805461167f90612ee5565b80156116cc5780601f106116a1576101008083540402835291602001916116cc565b820191906000526020600020905b8154815290600101906020018083116116af57829003601f168201915b505050918352505060016020918201819052600084815260098352604090208351815591830151908201906117019082613006565b50604082015160028201906117169082613006565b506060820151600382019061172b9082613006565b50608082015160048201906117409082613006565b5060a082015160058201906117559082613006565b5060c091909101516006909101805460ff191691151591909117905560005b60078301548110156117f9576000828152600b60205260409020600784018054839081106117a4576117a4612f4b565b6000918252602080832084546001818101875595855291909320600292830290930180549190920290920180546001600160a01b0319166001600160a01b039093169290921782558201549082015501611774565b5060088201805460ff1916600117905560098201819055600061181b826122f8565b60405160200161182b91906130c4565b60408051601f1981840301815290829052600c549092506001600160a01b03169063724334c09084906118659060018801906020016130ed565b604051602081830303815290604052846127106040518563ffffffff1660e01b8152600401611897949392919061317f565b600060405180830381600087803b1580156118b157600080fd5b505af11580156118c5573d6000803e3d6000fd5b50506040518492508691507f753157c010caf5212ddd7cc78dab82f61b4342dc650ff43d540e19e3abf5ca9890600090a3306001600160a01b0316827f48f60036379fd7c4097915cf4b2dcab366c2d3881ae8b3cb2c19d6f7e35719b98560010160405161193391906131bc565b60405180910390a350505050565b60008751116119825760405162461bcd60e51b815260206004820152600d60248201526c13985b59481c995c5d5a5c9959609a1b604482015260640161057a565b60008251116119d35760405162461bcd60e51b815260206004820152601b60248201527f4174206c65617374206f6e65206f776e65722072657175697265640000000000604482015260640161057a565b8051825114611a335760405162461bcd60e51b815260206004820152602660248201527f4f776e65727320616e642070657263656e7461676573206c656e677468206d696044820152650e6dac2e8c6d60d31b606482015260840161057a565b6000805b8251811015611b555760006001600160a01b0316848281518110611a5d57611a5d612f4b565b60200260200101516001600160a01b031603611ab35760405162461bcd60e51b8152602060048201526015602482015274496e76616c6964206f776e6572206164647265737360581b604482015260640161057a565b6000838281518110611ac757611ac7612f4b565b602002602001015111611b265760405162461bcd60e51b815260206004820152602160248201527f50657263656e74616765206d7573742062652067726561746572207468616e206044820152600360fc1b606482015260840161057a565b828181518110611b3857611b38612f4b565b602002602001015182611b4b9190613247565b9150600101611a37565b508061271014611ba75760405162461bcd60e51b815260206004820181905260248201527f546f74616c2070657263656e74616765206d75737420657175616c2031303025604482015260640161057a565b60088054906000611bb783612fa6565b90915550506008546000818152600a6020526040902081815560018101611bde8b82613006565b5060028101611bed8a82613006565b5060038101611bfc8982613006565b5060048101611c0b8882613006565b5060058101611c1a8782613006565b506006810180546001600160a01b0319163317905560088101805460ff191690556000600982018190555b8551811015611cea57816007016040518060400160405280888481518110611c6f57611c6f612f4b565b60200260200101516001600160a01b03168152602001878481518110611c9757611c97612f4b565b602090810291909101810151909152825460018082018555600094855293829020835160029092020180546001600160a01b0319166001600160a01b039092169190911781559101519082015501611c45565b50336001600160a01b0316827f0bd2afa1d657100ddd5b1150fd06f6d3d3e2e90d0e95ef0e1d916883884f523a8c604051611d25919061274c565b60405180910390a350505050505050505050565b611d416120af565b6000865111611d825760405162461bcd60e51b815260206004820152600d60248201526c13985b59481c995c5d5a5c9959609a1b604482015260640161057a565b6001600160a01b038516611dc85760405162461bcd60e51b815260206004820152600d60248201526c24b73b30b634b21037bbb732b960991b604482015260640161057a565b60078054906000611dd883612fa6565b9091555050600754611dea868261238a565b6040805160e08101825282815260208082018a8152828401899052606083018890526080830187905260a08301869052600060c0840181905285815260099092529290208151815591519091906001820190611e469082613006565b5060408201516002820190611e5b9082613006565b5060608201516003820190611e709082613006565b5060808201516004820190611e859082613006565b5060a08201516005820190611e9a9082613006565b5060c091909101516006909101805460ff19169115159190911790556040516001600160a01b0387169082907f48f60036379fd7c4097915cf4b2dcab366c2d3881ae8b3cb2c19d6f7e35719b990611ef3908b9061274c565b60405180910390a350505050505050565b6001600160a01b03918216600090815260056020908152604080832093909416825291909152205460ff1690565b611f3a6120af565b6001600160a01b038116611f6457604051631e4fbdf760e01b81526000600482015260240161057a565b611f6d816120dc565b50565b6000818152600260205260408120546001600160a01b03168061048457604051637e27328960e01b81526004810184905260240161057a565b610b4183838360016123a4565b6000828152600260205260408120546001600160a01b0390811690831615611fe357611fe38184866124aa565b6001600160a01b03811615612021576120006000856000806123a4565b6001600160a01b038116600090815260036020526040902080546000190190555b6001600160a01b03851615612050576001600160a01b0385166000908152600360205260409020805460010190555b60008481526002602052604080822080546001600160a01b0319166001600160a01b0389811691821790925591518793918516917fddf252ad1be2c89b69c2b068fc378daa952ba7f163c4a11628f55a4df523b3ef91a4949350505050565b6006546001600160a01b03163314610d075760405163118cdaa760e01b815233600482015260240161057a565b600680546001600160a01b038381166001600160a01b0319831681179093556040519116919082907f8be0079c531659141344cd1fd0a4f28419497f9722a3daafe3b4186f6b6457e090600090a35050565b6001600160a01b03821661216057604051630b61174360e31b81526001600160a01b038316600482015260240161057a565b6001600160a01b03838116600081815260056020908152604080832094871680845294825291829020805460ff191686151590811790915591519182527f17307eab39ab6107e8899845ad3d59bd9653f200f220920489ca2b5937696c31910160405180910390a3505050565b6001600160a01b0383163b156122f157604051630a85bd0160e11b81526001600160a01b0384169063150b7a029061220f90889088908790879060040161325a565b6020604051808303816000875af192505050801561224a575060408051601f3d908101601f1916820190925261224791810190613297565b60015b6122b3573d808015612278576040519150601f19603f3d011682016040523d82523d6000602084013e61227d565b606091505b5080516000036122ab57604051633250574960e11b81526001600160a01b038516600482015260240161057a565b805160208201fd5b6001600160e01b03198116630a85bd0160e11b146122ef57604051633250574960e11b81526001600160a01b038516600482015260240161057a565b505b5050505050565b606060006123058361250e565b60010190506000816001600160401b03811115612324576123246129c0565b6040519080825280601f01601f19166020018201604052801561234e576020820181803683370190505b5090508181016020015b600019016f181899199a1a9b1b9c1cb0b131b232b360811b600a86061a8153600a850494508461235857509392505050565b6105508282604051806020016040528060008152506125e6565b80806123b857506001600160a01b03821615155b1561247a5760006123c884611f70565b90506001600160a01b038316158015906123f45750826001600160a01b0316816001600160a01b031614155b801561240757506124058184611f04565b155b156124305760405163a9fbf51f60e01b81526001600160a01b038416600482015260240161057a565b81156124785783856001600160a01b0316826001600160a01b03167f8c5be1e5ebec7d5bd14f71427d1e84f3dd0314c0f7b2291e5b200ac8c7c3b92560405160405180910390a45b505b5050600090815260046020526040902080546001600160a01b0319166001600160a01b0392909216919091179055565b6124b58383836125fe565b610b41576001600160a01b0383166124e357604051637e27328960e01b81526004810182905260240161057a565b60405163177e802f60e01b81526001600160a01b03831660048201526024810182905260440161057a565b60008072184f03e93ff9f4daa797ed6e38ed64bf6a1f0160401b831061254d5772184f03e93ff9f4daa797ed6e38ed64bf6a1f0160401b830492506040015b6d04ee2d6d415b85acef81000000008310612579576d04ee2d6d415b85acef8100000000830492506020015b662386f26fc10000831061259757662386f26fc10000830492506010015b6305f5e10083106125af576305f5e100830492506008015b61271083106125c357612710830492506004015b606483106125d5576064830492506002015b600a83106104845760010192915050565b6125f08383612664565b610b413360008585856121cd565b60006001600160a01b0383161580159061265c5750826001600160a01b0316846001600160a01b0316148061263857506126388484611f04565b8061265c57506000828152600460205260409020546001600160a01b038481169116145b949350505050565b6001600160a01b03821661268e57604051633250574960e11b81526000600482015260240161057a565b600061269c83836000611fb6565b90506001600160a01b03811615610b41576040516339e3563760e11b81526000600482015260240161057a565b6001600160e01b031981168114611f6d57600080fd5b6000602082840312156126f157600080fd5b8135611321816126c9565b60005b838110156127175781810151838201526020016126ff565b50506000910152565b600081518084526127388160208601602086016126fc565b601f01601f19169290920160200192915050565b6020815260006113216020830184612720565b60006020828403121561277157600080fd5b5035919050565b80356001600160a01b038116811461278f57600080fd5b919050565b600080604083850312156127a757600080fd5b6127b083612778565b946020939093013593505050565b6000806000606084860312156127d357600080fd5b6127dc84612778565b92506127ea60208501612778565b929592945050506040919091013590565b60208152815160208201526000602083015160e06040840152612822610100840182612720565b90506040840151601f1984830301606085015261283f8282612720565b9150506060840151601f1984830301608085015261285d8282612720565b9150506080840151601f198483030160a085015261287b8282612720565b91505060a0840151601f198483030160c08501526128998282612720565b91505060c0840151151560e08401528091505092915050565b600080604083850312156128c557600080fd5b823591506128d560208401612778565b90509250929050565b6040808252835190820181905260009060208501906060840190835b818110156129215783516001600160a01b03168352602093840193909201916001016128fa565b50508381036020808601919091528551808352918101925085019060005b8181101561295d57825184526020938401939092019160010161293f565b50919695505050505050565b60006020828403121561297b57600080fd5b61132182612778565b6000806040838503121561299757600080fd5b6129a083612778565b9150602083013580151581146129b557600080fd5b809150509250929050565b634e487b7160e01b600052604160045260246000fd5b604051601f8201601f191681016001600160401b03811182821017156129fe576129fe6129c0565b604052919050565b6000806001600160401b03841115612a2057612a206129c0565b50601f8301601f1916602001612a35816129d6565b915050828152838383011115612a4a57600080fd5b828260208301376000602084830101529392505050565b60008060008060808587031215612a7757600080fd5b612a8085612778565b9350612a8e60208601612778565b92506040850135915060608501356001600160401b03811115612ab057600080fd5b8501601f81018713612ac157600080fd5b612ad087823560208401612a06565b91505092959194509250565b89815261012060208201526000612af761012083018b612720565b8281036040840152612b09818b612720565b90508281036060840152612b1d818a612720565b90508281036080840152612b318189612720565b905082810360a0840152612b458188612720565b6001600160a01b039690961660c0840152505060ff9290921660e0830152610100909101529695505050505050565b600082601f830112612b8557600080fd5b61132183833560208501612a06565b60006001600160401b03821115612bad57612bad6129c0565b5060051b60200190565b600082601f830112612bc857600080fd5b8135612bdb612bd682612b94565b6129d6565b8082825260208201915060208360051b860101925085831115612bfd57600080fd5b602085015b83811015612c2157612c1381612778565b835260209283019201612c02565b5095945050505050565b600082601f830112612c3c57600080fd5b8135612c4a612bd682612b94565b8082825260208201915060208360051b860101925085831115612c6c57600080fd5b602085015b83811015612c21578035835260209283019201612c71565b600080600080600080600060e0888a031215612ca457600080fd5b87356001600160401b03811115612cba57600080fd5b612cc68a828b01612b74565b97505060208801356001600160401b03811115612ce257600080fd5b612cee8a828b01612b74565b96505060408801356001600160401b03811115612d0a57600080fd5b612d168a828b01612b74565b95505060608801356001600160401b03811115612d3257600080fd5b612d3e8a828b01612b74565b94505060808801356001600160401b03811115612d5a57600080fd5b612d668a828b01612b74565b93505060a08801356001600160401b03811115612d8257600080fd5b612d8e8a828b01612bb7565b92505060c08801356001600160401b03811115612daa57600080fd5b612db68a828b01612c2b565b91505092959891949750929550565b60008060008060008060c08789031215612dde57600080fd5b86356001600160401b03811115612df457600080fd5b612e0089828a01612b74565b965050612e0f60208801612778565b945060408701356001600160401b03811115612e2a57600080fd5b612e3689828a01612b74565b94505060608701356001600160401b03811115612e5257600080fd5b612e5e89828a01612b74565b93505060808701356001600160401b03811115612e7a57600080fd5b612e8689828a01612b74565b92505060a08701356001600160401b03811115612ea257600080fd5b612eae89828a01612b74565b9150509295509295509295565b60008060408385031215612ece57600080fd5b612ed783612778565b91506128d560208401612778565b600181811c90821680612ef957607f821691505b602082108103612f1957634e487b7160e01b600052602260045260246000fd5b50919050565b602080825260129082015271125b9d985b1a59081c995c5d595cdd08125160721b604082015260600190565b634e487b7160e01b600052603260045260246000fd5b60008351612f738184602088016126fc565b835190830190612f878183602088016126fc565b01949350505050565b634e487b7160e01b600052601160045260246000fd5b600060018201612fb857612fb8612f90565b5060010190565b601f821115610b4157806000526020600020601f840160051c81016020851015612fe65750805b601f840160051c820191505b818110156122f15760008155600101612ff2565b81516001600160401b0381111561301f5761301f6129c0565b6130338161302d8454612ee5565b84612fbf565b6020601f821160018114613067576000831561304f5750848201515b600019600385901b1c1916600184901b1784556122f1565b600084815260208120601f198516915b828110156130975787850151825560209485019460019092019101613077565b50848210156130b55786840151600019600387901b60f8161c191681555b50505050600190811b01905550565b602360f91b8152600082516130e08160018501602087016126fc565b9190910160010192915050565b6a0233930b1ba34b7b730b6160ad1b8152600080835461310c81612ee5565b600182168015613123576001811461313e57613174565b60ff198316600b870152600b82151583028701019350613174565b86600052602060002060005b83811015613169578154888201600b015260019091019060200161314a565b5050600b8287010193505b509195945050505050565b8481526080602082015260006131986080830186612720565b82810360408401526131aa8186612720565b91505082606083015295945050505050565b6020815260008083546131ce81612ee5565b80602086015260018216600081146131ed576001811461320957613174565b60ff1983166040870152604082151560051b8701019350613174565b86600052602060002060005b8381101561323457815488820160400152600190910190602001613215565b8701604001945050509195945050505050565b8082018082111561048457610484612f90565b6001600160a01b038581168252841660208201526040810183905260806060820181905260009061328d90830184612720565b9695505050505050565b6000602082840312156132a957600080fd5b8151611321816126c956fea264697066735822122025399a5a27950839c1847f5de3f920f2e774909a013bb12da94cfbee14270e5364736f6c634300081c0033",
  "linkReferences": {},
  "deployedLinkReferences": {}
}