{
  "_format": "hh-sol-artifact-1",
  "contractName": "PropertyRegistry",
  "sourceName": "contracts/PropertyRegistry.sol",
  "abi": [
    {
      "anonymous": false,
      "inputs": [
        {
          "indexed": true,
          "internalType": "uint256",
          "name": "propertyId",
          "type": "uint256"
        },
        {
          "indexed": true,
          "internalType": "address",
          "name": "from",
          "type": "address"
        },
        {
          "indexed": true,
          "internalType": "address",
          "name": "to",
          "type": "address"
        }
      ],
      "name": "PropertyFullyTransferred",
      "type": "event"
    },
    {
      "anonymous": false,
      "inputs": [
        {
          "indexed": true,
          "internalType": "uint256",
          "name": "propertyId",
          "type": "uint256"
        },
        {
          "indexed": false,
          "internalType": "string",
          "name": "name",
          "type": "string"
        }
      ],
      "name": "PropertyRegistered",
      "type": "event"
    },
    {
      "anonymous": false,
      "inputs": [
        {
          "indexed": true,
          "internalType": "uint256",
          "name": "propertyId",
          "type": "uint256"
        },
        {
          "indexed": true,
          "internalType": "address",
          "name": "from",
          "type": "address"
        },
        {
          "indexed": true,
          "internalType": "address",
          "name": "to",
          "type": "address"
        },
        {
          "indexed": false,
          "internalType": "uint256",
          "name": "percent",
          "type": "uint256"
        }
      ],
      "name": "ShareTransferred",
      "type": "event"
    },
    {
      "inputs": [
        {
          "internalType": "uint256",
          "name": "_propertyId",
          "type": "uint256"
        }
      ],
      "name": "getOwners",
      "outputs": [
        {
          "internalType": "address[]",
          "name": "ownerAddresses",
          "type": "address[]"
        },
        {
          "internalType": "uint256[]",
          "name": "ownerShares",
          "type": "uint256[]"
        }
      ],
      "stateMutability": "view",
      "type": "function"
    },
    {
      "inputs": [
        {
          "internalType": "uint256",
          "name": "_propertyId",
          "type": "uint256"
        }
      ],
      "name": "getProperty",
      "outputs": [
        {
          "internalType": "uint256",
          "name": "id",
          "type": "uint256"
        },
        {
          "internalType": "string",
          "name": "name",
          "type": "string"
        },
        {
          "internalType": "uint256",
          "name": "ownersCount",
          "type": "uint256"
        }
      ],
      "stateMutability": "view",
      "type": "function"
    },
    {
      "inputs": [],
      "name": "propertyCount",
      "outputs": [
        {
          "internalType": "uint256",
          "name": "",
          "type": "uint256"
        }
      ],
      "stateMutability": "view",
      "type": "function"
    },
    {
      "inputs": [
        {
          "internalType": "string",
          "name": "_name",
          "type": "string"
        },
        {
          "internalType": "address[]",
          "name": "_owners",
          "type": "address[]"
        },
        {
          "internalType": "uint256[]",
          "name": "_shares",
          "type": "uint256[]"
        }
      ],
      "name": "registerProperty",
      "outputs": [],
      "stateMutability": "nonpayable",
      "type": "function"
    },
    {
      "inputs": [
        {
          "internalType": "uint256",
          "name": "_propertyId",
          "type": "uint256"
        },
        {
          "internalType": "address",
          "name": "_to",
          "type": "address"
        }
      ],
      "name": "transferFullOwnership",
      "outputs": [],
      "stateMutability": "nonpayable",
      "type": "function"
    },
    {
      "inputs": [
        {
          "internalType": "uint256",
          "name": "_propertyId",
          "type": "uint256"
        },
        {
          "internalType": "address",
          "name": "_to",
          "type": "address"
        },
        {
          "internalType": "uint256",
          "name": "_percent",
          "type": "uint256"
        }
      ],
      "name": "transferShare",
      "outputs": [],
      "stateMutability": "nonpayable",
      "type": "function"
    }
  ],
  "bytecode": "0x6080604052348015600f57600080fd5b506114c18061001f6000396000f3fe608060405234801561001057600080fd5b50600436106100625760003560e01c806332665ffb14610067578063b526867214610092578063bf93a2a0146100a7578063c361a335146100ba578063d2ad92b9146100d1578063ee4525d5146100e4575b600080fd5b61007a610075366004610e66565b610105565b60405161008993929190610ec5565b60405180910390f35b6100a56100a0366004611047565b6101fe565b005b6100a56100b5366004611138565b61051a565b6100c360015481565b604051908152602001610089565b6100a56100df36600461116e565b610894565b6100f76100f2366004610e66565b610b1b565b60405161008992919061119a565b6000818152602081905260408120600301546060908290849060ff166101465760405162461bcd60e51b815260040161013d90611225565b60405180910390fd5b600085815260208190526040902080546002820154600183018054909190829061016f9061125c565b80601f016020809104026020016040519081016040528092919081815260200182805461019b9061125c565b80156101e85780601f106101bd576101008083540402835291602001916101e8565b820191906000526020600020905b8154815290600101906020018083116101cb57829003601f168201915b5050505050915094509450945050509193909250565b600083511161023f5760405162461bcd60e51b815260206004820152600d60248201526c13985b59481c995c5d5a5c9959609a1b604482015260640161013d565b80518251146102905760405162461bcd60e51b815260206004820152601a60248201527f4f776e65727320616e6420736861726573206d69736d61746368000000000000604482015260640161013d565b60008251116102e15760405162461bcd60e51b815260206004820152601b60248201527f4174206c65617374206f6e65206f776e65722072657175697265640000000000604482015260640161013d565b6000805b83518110156103985760006001600160a01b031684828151811061030b5761030b611296565b60200260200101516001600160a01b0316036103695760405162461bcd60e51b815260206004820152601c60248201527f4f776e65722063616e6e6f74206265207a65726f206164647265737300000000604482015260640161013d565b82818151811061037b5761037b611296565b60200260200101518261038e91906112c2565b91506001016102e5565b50806064146103e95760405162461bcd60e51b815260206004820152601760248201527f546f74616c207368617265206d75737420626520313030000000000000000000604482015260640161013d565b600180549060006103f9836112db565b90915550506001805460008181526020819052604090209081559081016104208682611343565b5060038101805460ff1916600117905560005b84518110156104d85781600201604051806040016040528087848151811061045d5761045d611296565b60200260200101516001600160a01b0316815260200186848151811061048557610485611296565b602090810291909101810151909152825460018082018555600094855293829020835160029092020180546001600160a01b0319166001600160a01b039092169190911781559101519082015501610433565b506001547fce0a48c8363597336cae686f033156384659682c08d76ff460e2d3ef0c899cae8660405161050b9190611402565b60405180910390a25050505050565b600083815260208190526040902060030154839060ff1661054d5760405162461bcd60e51b815260040161013d90611225565b83600061055a8233610cb6565b5090508061057a5760405162461bcd60e51b815260040161013d9061141c565b6001600160a01b0385166105d05760405162461bcd60e51b815260206004820181905260248201527f526563697069656e742063616e6e6f74206265207a65726f2061646472657373604482015260640161013d565b336001600160a01b038616036106225760405162461bcd60e51b815260206004820152601760248201527621b0b73737ba103a3930b739b332b9103a379039b2b63360491b604482015260640161013d565b600084118015610633575060648411155b6106715760405162461bcd60e51b815260206004820152600f60248201526e125b9d985b1a59081c195c98d95b9d608a1b604482015260640161013d565b6000868152602081905260408120908061068b8933610cb6565b91509150816106dc5760405162461bcd60e51b815260206004820152601960248201527f53656e646572206e6f7420666f756e64206173206f776e657200000000000000604482015260640161013d565b60008360020182815481106106f3576106f3611296565b9060005260206000209060020201905087816001015410156107575760405162461bcd60e51b815260206004820152601c60248201527f4e6f7420656e6f75676820736861726520746f207472616e7366657200000000604482015260640161013d565b8781600101600082825461076b9190611462565b90915550600090508061077e8c8c610cb6565b9150915081156107c9578986600201828154811061079e5761079e611296565b906000526020600020906002020160010160008282546107be91906112c2565b909155506108229050565b604080518082019091526001600160a01b038c8116825260208083018d815260028a81018054600180820183556000928352949091209551910290940180546001600160a01b0319169490931693909317825591519101555b8260010154600003610838576108388c85610d3a565b8a6001600160a01b0316336001600160a01b03168d7f47b6f5075904cd0f1f8801ba5355db3939388d00827bdcc8785ee045345e4baf8d60405161087e91815260200190565b60405180910390a4505050505050505050505050565b600082815260208190526040902060030154829060ff166108c75760405162461bcd60e51b815260040161013d90611225565b8260006108d48233610cb6565b509050806108f45760405162461bcd60e51b815260040161013d9061141c565b6001600160a01b03841661094a5760405162461bcd60e51b815260206004820181905260248201527f526563697069656e742063616e6e6f74206265207a65726f2061646472657373604482015260640161013d565b336001600160a01b0385160361099c5760405162461bcd60e51b815260206004820152601760248201527621b0b73737ba103a3930b739b332b9103a379039b2b63360491b604482015260640161013d565b600085815260208190526040812090806109b68833610cb6565b91509150816109fa5760405162461bcd60e51b815260206004820152601060248201526f21b0b63632b9103737ba1037bbb732b960811b604482015260640161013d565b826002018181548110610a0f57610a0f611296565b906000526020600020906002020160010154606414610a805760405162461bcd60e51b815260206004820152602760248201527f43616c6c6572206d75737420686f6c64203130302520746f2066756c6c7920746044820152663930b739b332b960c91b606482015260840161013d565b610a8e600284016000610e18565b6040805180820182526001600160a01b0389811680835260646020808501918252600289810180546001808201835560009283529382209751920290960180546001600160a01b031916919095161784559051920191909155915133918b917fab018aef9fb5b48a1d6354ffac84b07d2319b800aa6c89f77ff891be6c967bdb9190a45050505050505050565b6000818152602081905260409020600301546060908190839060ff16610b535760405162461bcd60e51b815260040161013d90611225565b600084815260208190526040902060028101548067ffffffffffffffff811115610b7f57610b7f610eee565b604051908082528060200260200182016040528015610ba8578160200160208202803683370190505b5094508067ffffffffffffffff811115610bc457610bc4610eee565b604051908082528060200260200182016040528015610bed578160200160208202803683370190505b50935060005b81811015610cad57826002018181548110610c1057610c10611296565b600091825260209091206002909102015486516001600160a01b0390911690879083908110610c4157610c41611296565b60200260200101906001600160a01b031690816001600160a01b031681525050826002018181548110610c7657610c76611296565b906000526020600020906002020160010154858281518110610c9a57610c9a611296565b6020908102919091010152600101610bf3565b50505050915091565b60008281526020819052604081208190815b6002820154811015610d2757846001600160a01b0316826002018281548110610cf357610cf3611296565b60009182526020909120600290910201546001600160a01b031603610d1f57600193509150610d339050565b600101610cc8565b50600060001992509250505b9250929050565b60008281526020819052604081206002810154909190610d5c90600190611462565b9050808314610dd657816002018181548110610d7a57610d7a611296565b9060005260206000209060020201826002018481548110610d9d57610d9d611296565b60009182526020909120825460029092020180546001600160a01b0319166001600160a01b039092169190911781556001918201549101555b81600201805480610de957610de9611475565b60008281526020812060026000199093019283020180546001600160a01b031916815560010155905550505050565b5080546000825560020290600052602060002090810190610e399190610e3c565b50565b5b80821115610e625780546001600160a01b031916815560006001820155600201610e3d565b5090565b600060208284031215610e7857600080fd5b5035919050565b6000815180845260005b81811015610ea557602081850181015186830182015201610e89565b506000602082860101526020601f19601f83011685010191505092915050565b838152606060208201526000610ede6060830185610e7f565b9050826040830152949350505050565b634e487b7160e01b600052604160045260246000fd5b604051601f8201601f1916810167ffffffffffffffff81118282101715610f2d57610f2d610eee565b604052919050565b600067ffffffffffffffff821115610f4f57610f4f610eee565b5060051b60200190565b80356001600160a01b0381168114610f7057600080fd5b919050565b600082601f830112610f8657600080fd5b8135610f99610f9482610f35565b610f04565b8082825260208201915060208360051b860101925085831115610fbb57600080fd5b602085015b83811015610fdf57610fd181610f59565b835260209283019201610fc0565b5095945050505050565b600082601f830112610ffa57600080fd5b8135611008610f9482610f35565b8082825260208201915060208360051b86010192508583111561102a57600080fd5b602085015b83811015610fdf57803583526020928301920161102f565b60008060006060848603121561105c57600080fd5b833567ffffffffffffffff81111561107357600080fd5b8401601f8101861361108457600080fd5b803567ffffffffffffffff81111561109e5761109e610eee565b6110b1601f8201601f1916602001610f04565b8181528760208385010111156110c657600080fd5b81602084016020830137600060208383010152809550505050602084013567ffffffffffffffff8111156110f957600080fd5b61110586828701610f75565b925050604084013567ffffffffffffffff81111561112257600080fd5b61112e86828701610fe9565b9150509250925092565b60008060006060848603121561114d57600080fd5b8335925061115d60208501610f59565b929592945050506040919091013590565b6000806040838503121561118157600080fd5b8235915061119160208401610f59565b90509250929050565b6040808252835190820181905260009060208501906060840190835b818110156111dd5783516001600160a01b03168352602093840193909201916001016111b6565b50508381036020808601919091528551808352918101925085019060005b818110156112195782518452602093840193909201916001016111fb565b50919695505050505050565b60208082526017908201527f50726f706572747920646f6573206e6f74206578697374000000000000000000604082015260600190565b600181811c9082168061127057607f821691505b60208210810361129057634e487b7160e01b600052602260045260246000fd5b50919050565b634e487b7160e01b600052603260045260246000fd5b634e487b7160e01b600052601160045260246000fd5b808201808211156112d5576112d56112ac565b92915050565b6000600182016112ed576112ed6112ac565b5060010190565b601f82111561133e57806000526020600020601f840160051c8101602085101561131b5750805b601f840160051c820191505b8181101561133b5760008155600101611327565b50505b505050565b815167ffffffffffffffff81111561135d5761135d610eee565b6113718161136b845461125c565b846112f4565b6020601f8211600181146113a5576000831561138d5750848201515b600019600385901b1c1916600184901b17845561133b565b600084815260208120601f198516915b828110156113d557878501518255602094850194600190920191016113b5565b50848210156113f35786840151600019600387901b60f8161c191681555b50505050600190811b01905550565b6020815260006114156020830184610e7f565b9392505050565b60208082526026908201527f43616c6c6572206973206e6f7420616e206f776e6572206f66207468652070726040820152656f706572747960d01b606082015260800190565b818103818111156112d5576112d56112ac565b634e487b7160e01b600052603160045260246000fdfea2646970667358221220adb75f257bc1572a8600e9e6c10914e7d40fa708e381054dbf21c38dd116b10064736f6c634300081c0033",
  "linkReferences": {},
  "deployedLinkReferences": {}
}